:020000040800F2
:10000000F03900209D010008F5100008C10F00081C
:10001000C50F000803080008FF1D000800000000CD
:10002000000000000000000000000000E3160008CF
:100030005D0D000800000000A51200083918000836
:10004000B7010008B7010008B7010008B7010008B0
:10005000B7010008B7010008B7010008B7010008A0
:10006000B7010008B7010008B7010008B701000890
:10007000B7010008B7010008B7010008B701000880
:10008000B7010008B7010008B7010008B701000870
:10009000B7010008B7010008B7010008B701000860
:1000A000B7010008B7010008B7010008B701000850
:1000B000B7010008E1180008F9180008B7010008A6
:1000C000B7010008B7010008B7010008B701000830
:1000D000B7010008551B0008B7010008B701000868
:1000E000B50D0008B7010008B7010008B701000806
:1000F000B7010008B7010008B7010008B701000800
:10010000B7010008B7010008291A0008B701000864
:10011000B7010008B7010008B7010008B7010008DF
:10012000B7010008090A0008B7010008B701000874
:10013000B7010008B7010008B7010008B7010008BF
:10014000B7010008B7010008B7010008B7010008AF
:10015000B7010008B7010008B7010008B70100089F
:10016000B7010008B7010008B7010008B70100088F
:10017000B7010008B70100084D090008B7010008E1
:10018000B7010008B7010008DFF80CD000F0ECFA66
:1001900000480047C12C0008F0390020064880477D
:1001A00006480047FEE7FEE7FEE7FEE7FEE7FEE75C
:1001B000FEE7FEE7FEE7FEE7791800088901000880
:1001C000D2B201E000F8012B491EFBD27047002299
:1001D000F6E710B513460A4604461946FFF7F0FF46
:1001E000204610BD2DE9FE4F804681EA0300C00F76
:1001F0000C46009021F0004123F00045B8EB0200CE
:10020000A94105D24046214690461C460B4602466F
:1002100023F00040104347D0270DC7F30A00C3F373
:100220000A510290401A019040286BDAC3F3130080
:1002300040F4801B0098924620B10023D2EB030AC1
:1002400063EB0B0B01985946C0F14002504600F099
:10025000D6F906460D4650465946019A00F0DEF999
:1002600010EB08006141002487EA115284EAE77329
:100270001A4340D0009A62B3019A012A4FEA07520A
:1002800015DC001B61EB02014FF0004202EA07524D
:10029000CDE90042001C41F5801132462B4600F0AA
:1002A00015FA03B0BDE8F08F40462146F9E7001B80
:1002B00061EB0201001C41F5801300185B4120181E
:1002C000A2F5001747EB030140EAD570B6196D415E
:1002D00011E06D084FEA360645EAC0754FEA07524D
:1002E000001B61EB0201001C41F5801149084FEA37
:1002F00030000019514132462B4603B0BDE8F04FA3
:1003000000F0D5B90098012240000023D0EB020292
:1003100063EBE073009821464FEAE074B8EB00000D
:1003200061EB0401E9E783F000435BE781F0004102
:1003300058E72DE9FE4F81EA030404F0004421F060
:10034000004100944FF0000B23F0004350EA0104F9
:100350005ED052EA03045BD0C3F30A54C1F30A55DA
:100360002C44A4F2F3340194A0FB0254C1F3130112
:1003700041F48011C3F3130343F4801301FB0244DF
:1003800000FB034E840A970A44EA815447EA8357E4
:10039000A4FB076802958D0A05FB07854FEA932C9D
:1003A00004FB0C542705029D4FEA065847EA16370E
:1003B000B5EB08056EEB070C870E920E47EA811726
:1003C00042EA8312A7FB0201B6EB0B0164EB0004C7
:1003D0002B0D43EA0C335E1844EB1C50DA465146B1
:1003E000E7FB0201C5F313044FEA0B3343EA14534E
:1003F0004FEA0432019C43EA0603A4F10C04029480
:10040000009CCDE900B400F061F903B0BDE8F08FC5
:1004100000200146F9E72DE9F04D81EA030404F0DC
:10042000004B21F0004514464FF0000A23F0004134
:1004300050EA050220D054EA01021DD0C5F30A5744
:100440000246C5F31303C1F31300C1F30A5640F487
:10045000801543F48013A7EB0608101BD64608F25C
:10046000FD3873EB050002D308F1010801E0921892
:100470005B41B8F1000F03DA00200146BDE8F08DC2
:1004800000204FF48011064684460EE0171B73EBE4
:10049000050705D3121B63EB050306434CEA010C69
:1004A00049084FEA300092185B4150EA0107EDD14C
:1004B00052EA030012D082EA040083EA05010843ED
:1004C00005D0101BAB4106D20122002306E000221A
:1004D0004FF0004302E06FF0010253101AEB0600E8
:1004E0004CEB085110EB0A0041EB0B01BDE8F04D5D
:1004F00000F0DDB80EB540F2334102910021CDE9A4
:1005000000110A460B4600F0E1F803B000BD00F010
:10051000004230F000400AD0C10D01F56071C0F317
:10052000160042EA0151C2084007114370470020FB
:100530000146704730B5041E71F1000404DB4FF032
:100540000044404264EB0101141E73F1000405DB1A
:100550001C464FF00043524263EB0403994208BF2C
:10056000904230BD01F0004330B421F0004150EA28
:10057000010206D00A0DA2F56072C1F31301002A30
:1005800002DC30BC00207047440F44EAC104C100C3
:10059000E01830BC00EBC25000F052B82DE9F05F1B
:1005A0000546002092469B468846064681464024E2
:1005B0001BE0284641464746224600F0E7F85346EE
:1005C0005A46C01A914110D311461846224600F0EF
:1005D00016F82D1A67EB01084F462246012000212C
:1005E00000F00DF817EB00094E41201EA4F10104A4
:1005F000DFDC484631462A464346BDE8F09F202AC4
:1006000004DB203A00FA02F1002070479140C2F169
:10061000200320FA03F3194390407047202A06DB99
:10062000CB17203A41FA02F043EAE07306E041FAC0
:1006300002F3D040C2F120029140084319467047AE
:100640000029A8BF7047401C490008BF20F00100E6
:10065000704710B4B0FA80FC00FA0CF050EA0104C4
:1006600004BF10BC704749B1CCF1200421FA04F456
:1006700011FA0CF118BF012121430843A3EB0C012F
:10068000CB1D4FEA00614FEA102042BF002010BC92
:10069000704700EBC35010440029A4BF10BC704742
:1006A000401C490008BF20F0010010BC704710B585
:1006B000141E73F1000408DA401C41F10001921885
:1006C0005B411A4301D120F0010010BD2DE9F04D2E
:1006D00092469B4611B1B1FA81F202E0B0FA80F283
:1006E00020329046FFF78BFF04460F4640EA0A008F
:1006F00041EA0B0153465A46084313D0114653EAC8
:10070000010019D0C8F14002504600F03FF80546FC
:100710000E46504659464246FFF771FF084305D042
:10072000012004E020463946BDE8F08D0020054355
:1007300046EAE0762C4337430A986305E40AA0EBC7
:1007400008000022FD0A44EA47540A3002D500207E
:100750000146E9E7010510196941DDE9084500197D
:100760006941BDE8F04DA2E7064C074D06E0E068A0
:1007700040F0010394E8070098471034AC42F6D3E8
:10078000FFF706FDC4500008E4500008202A04DBEF
:10079000203A21FA02F00021704721FA02F3D040FA
:1007A000C2F12002914008431946704770B58C1879
:1007B00010F8015B15F0070301D110F8013B2A1175
:1007C00006D110F8012B03E010F8016B01F8016B62
:1007D0005B1EF9D12B0705D40023521E0DD401F85E
:1007E000013BFAE710F8013BCB1A921C03E013F827
:1007F000015B01F8015B521EF9D5A142D8D300205C
:1008000070BD00BFFEE7000030B10749096841F044
:100810000101054A116005E00349096821F0010161
:10082000014A11607047000000000550014948610D
:10083000704700000000055030B10749096841F4D5
:100840008041054A116005E00349096821F48041AF
:10085000014A116070470000000005502DE9F04189
:1008600090B004460F4615461E46DDF8588001211B
:10087000880500F019FD244800F018F900BF22484F
:1008800000F0D7F90028FAD120491F4800F0E8F815
:100890004FF0007001901E480290039400200490D5
:1008A00005950690CDF81C804FF48050089009966D
:1008B00000110A9040020B9000200C900D900E90B9
:1008C0000F9001A9104800F01DFA002239460E4889
:1008D00000F0A3F901210C4800F094F90122102145
:1008E000094800F0F1F939208DF8000000208DF85A
:1008F000010001208DF802008DF80300684600F029
:10090000FBFB10B0BDE8F0812864024040FF00907E
:1009100028000550002005490860C8601F20486174
:1009200000208861C8610862486270470000055075
:10093000014600200022044B1B6903EA01020AB1B0
:10094000012000E0002070470000055010B5012094
:10095000FFF7EEFF012804D101F068FE0120FFF748
:1009600065FF10BD29B1074AD2680243054BDA6022
:1009700006E0044AD268C3439BB21A40014BDA60D6
:10098000704700000000055000210E4A126844F232
:1009900001039A430B4B1A601A46116840F6F27233
:1009A0009143028843881A4383881A43C3881A43B1
:1009B00003891A4343891A4383891A431143014A1D
:1009C000116070470000055010B50121034800F088
:1009D00061F80120FFF718FF10BD000028640240F5
:1009E00010B50020FFF710FF00BF0548006800F0B9
:1009F00001000028F9D10021024800F04BF810BD99
:100A0000000005502864024010B51049104800F05D
:100A100029F9012818D10E4800F019F908B90D4C30
:100A200000E00D4C0D49096808034FF4805221463F
:100A300002F0E8FF09480068401C084908600349C3
:100A4000034800F00DF800BF10BD00000088001042
:100A500028640240B4210020B411002020000020AE
:100A60000246094B9A4201D2084801E00648103874
:100A700001F000531BB1064B0B40C36002E0044B76
:100A80000B40836070470000106402400060024029
:100A90007D0F7D0F21B1026842F00102026003E088
:100AA000026822F00102026070470000016821F034
:100AB000010101600021016041608160C16001614C
:100AC000212141614A49884204D13D21484A103AD6
:100AD00091608CE046491831884205D14FF4746129
:100AE000434A103A916082E041493031884205D151
:100AF0004FF474113E4A103A916078E03C49483115
:100B0000884205D14FF07461394A103A91606EE025
:100B100037496031884204D13649354A103AD160AC
:100B200065E033497831884204D13349304A103A7C
:100B3000D1605CE02E499031884204D12F492C4A83
:100B4000103AD16053E02A49A831884205D14FF0CC
:100B50003D51274A103AD16049E02949884204D1E1
:100B60003D21274A083A116041E025491831884261
:100B700005D14FF47461224A083A116037E02049E8
:100B80003031884205D14FF474111D4A083A116082
:100B90002DE01B494831884205D14FF07461184A55
:100BA000083A116023E016496031884204D11149A6
:100BB000134A121F11601AE011497831884204D19A
:100BC0000D490F4A121F116011E00D499031884202
:100BD00004D10A490A4A121F116008E00849A831E5
:100BE000884204D14FF03D51054A121F11607047F1
:100BF000106002403D000020400F002000003D201A
:100C00001064024021B1026842F48022026003E0D5
:100C1000026822F480220260704722B1036843F424
:100C20000023036003E0036823F4002303600161F1
:100C30007047014600200A6802F001020AB1012053
:100C400000E0002070470146486880B270470146C6
:100C500000200A6802F400220AB1012000E000200E
:100C60007047000070B50246002000240025124E97
:100C7000B24201D2114B01E00F4B103B104E0E401F
:100C800036B11E2606EAD124166806EA040502E0FB
:100C9000566906F0800501F000560EB15C6800E070
:100CA0001C68084E344004EA010616B10DB101205B
:100CB00000E0002070BD00001064024000600240AF
:100CC0003C0F3C0F7D0F7D0F10B501F080034BB141
:100CD00022B1436943F08003436103E0436923F099
:100CE0008003436180290BD02AB1036801F01E0400
:100CF0002343036004E0036801F01E04A343036080
:100D000010BD000010B500220268134B1A40CC68D9
:100D10000B6823434C6923438C692343CC692343E9
:100D20000C6A23434C6A23438C6A23434C6B234352
:100D30008C6B23431A430260426922F00702D1E917
:100D40000B3423431A4342610B6943604B68836051
:100D50008B68C36010BD00003F801CF0704700002E
:100D60002DE9F04106460C461746022010494883FB
:100D7000032000F061FCC4F3074000F05DFCC4F305
:100D8000072000F059FCE0B200F056FC002505E019
:100D9000FF2000F051FC7055681C85B2BD42F7DBA6
:100DA00002200349088302F015FEBDE8F08100002F
:100DB0000000024010B54FF4806000F033F80128C5
:100DC00021D10A2001F072FB1148007818B90120E6
:100DD0000F49087017E001F06BFC28B10C48C0788F
:100DE000401C0B49C87004E009480079401C0849C0
:100DF00008710748407830B9012005494870012141
:100E0000044800F03EFE4FF4806000F005F810BD8D
:100E1000E4310020000800400149086070470000EC
:100E2000143C014001460020034A12680A400AB1FE
:100E3000012000E000207047143C014000212349BC
:100E40008279002A3AD00A46126803689A430B4610
:100E50001A600A1D126803689A430B1D1A60027912
:100E600011440A6803681A430A60184A0832126873
:100E700003689A43154B08331A601A1D12680368F9
:100E80009A43124B0C331A604279102A0ED11A1F62
:100E9000126803681A430D4B08331A601A1D126852
:100EA00003681A43094B0C331A600DE00749427975
:100EB00011440A6803681A430A6005E00279114484
:100EC0000A6803689A430A6070470000003C0140CA
:100ED000F0B50A4600210023002400BF3DE00125B3
:100EE00005FA01F3156805EA03049C4234D105684C
:100EF0004F000326BE40B543056015794E00B5404E
:100F00000668354305601579012D02D01579022D4B
:100F100016D185684F000326BE40B54385605579DC
:100F20004E00B540866835438560456801268E4091
:100F3000B5434560456896798E40B6B23543456005
:100F4000C5684F000326BE40B543C560D5794E0045
:100F5000B540C6683543C560491C1029BFD3F0BDF4
:100F6000F0B5002300244D07ED0E02FA05F3CE1074
:100F700000F1200555F826504E07F70E0F26BE400B
:100F8000B543CF1000F1200646F82750CE1000F1EF
:100F9000200555F8265045EA0304CE1000F120053F
:100FA00045F82640F0BD0246002013690B400BB106
:100FB000012000E0002070474183704701837047A3
:100FC00000BFFEE700BFFEE70EB50121172000F0CD
:100FD0006BF90121084600F077F9502001900220BA
:100FE0008DF8080000208DF80A0003208DF8090014
:100FF00001208DF80B0001A93948FFF769FFC020D7
:10100000019001A93748FFF763FF4FF4707001901A
:1010100001A93548FFF75CFF7020019001A9334812
:10102000FFF756FF0D2204212D48FFF799FF0D22EF
:1010300006212B48FFF794FF0D2207212948FFF7CF
:101040008FFF0D2206212848FFF78AFF0D22072176
:101050002548FFF785FF0D2208212348FFF780FF71
:101060000D2209212048FFF77BFF0D2204211F4894
:10107000FFF776FF0D2206211A48FFF771FF0D22B8
:1010800005211A48FFF76CFF0D2206211748FFF7CC
:1010900067FFFFF73FFC00201549088048818881E1
:1010A000088120208880002048808020C880084651
:1010B000FFF76AFC01210846FFF754FC0120FFF707
:1010C000BBFB4E208DF8000000208DF801000120B0
:1010D0008DF802008DF80300684600F00DF80EBD93
:1010E00000000240000402400008024000100240DC
:1010F000B43100207047000070B5002100230F229A
:10110000C4781CB3174C246804F4E064C4F5E064AC
:10111000C4F30721C1F10404E3B20A4144789C40BE
:10112000E1B28478144021430C07210E0E4C05785F
:101130006155047804F01F050124AC4005786D1159
:10114000AD0005F1E025C5F8004109E0047804F0A0
:101150001F050124AC40054D0678761145F8264060
:1011600070BD00000CED00E000E400E080E100E074
:1011700002490143024A1160704700000000FA056D
:101180000CED00E02DE9F04104460D4616461F46E1
:10119000032143F2122000F067F8311243F60800F1
:1011A00000F062F8F1B243F6090000F05DF8391280
:1011B00043F60A0000F058F8F9B243F60B0000F0CD
:1011C00053F8211243F6100000F04EF8E1B243F656
:1011D000110000F049F8291243F6120000F044F81B
:1011E000E9B243F6130000F03FF8132143F2122056
:1011F00000F03AF8A32143F2122000F035F8002065
:10120000BDE8F08170B50446002500F085F978202E
:1012100000F0B6F9201200F0B3F9E0B200F0B0F936
:1012200000F094F900F078F9792000F0A9F900F0C5
:101230003BF9054600F018F900F088F9284670BD22
:1012400010B5002400BF0AE0064A02EB8402917840
:10125000044A32F8240000F007F8601C84B22E2CF7
:10126000F2D310BD543C000870B504460D4600266C
:1012700000F052F9782000F083F900B10126201225
:1012800000F07EF900B10126E0B200F079F900B17A
:101290000126284600F074F900B1012600F056F945
:1012A000304670BD7047000029B1064A12680243FB
:1012B000044B1A6004E0034A12688243014B1A602F
:1012C000704700003038024029B1064A12680243D4
:1012D000044B1A6004E0034A12688243014B1A600F
:1012E000704700003438024029B1064A12680243B0
:1012F000044B1A6004E0034A12688243014B1A60EF
:10130000704700004038024029B1064A1268024383
:10131000044B1A6004E0034A12688243014B1A60CE
:101320007047000044380240F0B50021002200243C
:10133000022500260223324F3F6807F00C0121B13D
:10134000042905D0082937D105E02E4F076036E083
:101350002D4F076033E02A4F3F1F3F68C7F3805689
:10136000274F3F1F3F6807F03F036EB1264FB7FB83
:10137000F3F7DFF88CC0ACF1040CDCF800C0CCF360
:10138000881C07FB0CF40CE01E4FB7FBF3F7DFF8EB
:1013900070C0ACF1040CDCF800C0CCF3881C07FB77
:1013A0000CF4174F3F1F3F68C7F301477F1C7D00B8
:1013B000B4FBF5F7076002E0124F076000BF00BF03
:1013C0000F4F3F6807F0F0010909104F7A5C07687A
:1013D000D74047600A4F3F6807F4E051890A0B4F36
:1013E0007A5C4768D7408760054F3F6807F46041E3
:1013F000490B064F7A5C4768D740C760F0BD0000D4
:10140000083802400024F40000127A000600002090
:101410001CB501210220FFF747FF4FF440700090F8
:1014200001208DF8040000208DF8060002208DF8C0
:10143000050001208DF8070069460A48FFF748FDBE
:101440004FF440710748FFF7B9FD0648006820F4E3
:101450004020044908600846006840F48020086085
:101460001CBD00000004024010B5022001F060F82D
:1014700001200B4908600B49C1F8A002022001F0CD
:1014800057F800200649091F0860022001F050F8B3
:1014900000200449C1F8A402022001F049F810BD5F
:1014A000A48240420080404270B500241748006882
:1014B00020F44020154908600846006808600825A7
:1014C00015E0022001F034F801201149086060069F
:1014D000040E1048D0F8240208B1601CC4B20220E7
:1014E00001F026F800200A490860681EC5B2002DE8
:1014F000E7DC0648006820F44020044908600846FC
:10150000006840F480200860204670BD000402405E
:10151000A08240420080404210B501200949086085
:101520000949C1F8A002022001F002F80020054993
:101530000860022000F0FCFF00200349C1F8A0026F
:1015400010BD0000A48240420080404210B500203F
:1015500009490860022000F0EBFF01200749C1F8AB
:10156000A002022000F0E4FF0120034908600220ED
:1015700000F0DEFF10BD0000A48240420080404227
:1015800070B5044600261BE004F0800018B101206D
:101590002249086002E00020204908606006040E2D
:1015A000022000F0C5FF01201C49091F086002202D
:1015B00000F0BEFF00201A49C1F8A002701CC6B29C
:1015C000082EE1DB1748006820F440201549086028
:1015D000084600680860022000F0AAFF01200F49B9
:1015E000091F0860022000F0A3FF0D48D0F8240274
:1015F00008B1012500E0002500200849091F086006
:101600000848006820F44020064908600846006841
:1016100040F480200860284670BD0000A48240424B
:10162000008040420004024010B501F045FF01F087
:101630006DFF01F0D3FE10BD014600BF09480089CF
:1016400000F002000028F9D00648818100BF05485B
:10165000008900F001000028F9D002488089C0B25A
:10166000704700000030014021B1028842F0400282
:10167000028004E002884FF6BF731A400280704770
:1016800010B5002201F00F040123A3409AB2D34306
:10169000038110BD1AB183880B43838002E08388E5
:1016A0008B438380704710B50022028802F44152B8
:1016B0000B884C8823438C882343CC8823430C8994
:1016C00023434C8923438C892343CC8923431A43E6
:1016D0000280838B4FF2FF74234083830B8A038243
:1016E00010BD704730B500228B071C0F0F2303FA83
:1016F00004F20B4B8C1053F824309343084C8D109C
:1017000044F8253023468C1053F824308C07240FDE
:1017100000FA04F42343024C8D1044F8253030BD08
:10172000083801400CB50020019000903448006852
:1017300040F480303249086000BF3148006800F44E
:10174000003000900198401C0190009818B9019851
:10175000B0F5A04FF1D12A48006800F4003010B174
:101760000120009001E0002000900098012846D15F
:1017700023484030006840F08050214940310860E3
:101780002048006840F440401E4908601C4808306A
:1017900000681B49083108600846006840F40040B2
:1017A00008600846006840F4A05008601648091F09
:1017B0000860081F006840F08070091F086000BFC3
:1017C0000F48006800F000700028F9D040F2057062
:1017D0000E4908600A480830006820F003000849F4
:1017E000083108600846006840F00200086000BF49
:1017F00003480830006800F00C000828F8D10CBD40
:10180000003802400070004008544007003C02408D
:10181000042808D14FF0E021096941F004014FF09C
:10182000E022116107E04FF0E021096921F0040195
:101830004FF0E022116170477047000010B5044678
:101840006FF00400FFF7E4FFE11704EB5171C1F3FF
:10185000C701074A11701046007800EB4001C1EB48
:10186000C0104FF6FF7101EAC0000249088010BDA8
:10187000160000201800002010B51548006840F43C
:101880007000134908601348006840F001001149D6
:10189000086000200F49083108600E4800680E49B2
:1018A00008400C4908600D48091D0860081F0068C1
:1018B00020F48020091F0860002006490C310860D0
:1018C000FFF730FF4FF0006001498039086010BD1C
:1018D00088ED00E000380240FFFFF6FE10300024E3
:1018E00010B50121034800F0D8F80121014800F0AB
:1018F000C5F810BD0004004010B50121384800F0C3
:10190000CCF8002866D03748C088401C3549C880CC
:1019100000F0CEFE334988700846807818B9084632
:10192000007A401C08722F48C088162852DD2D48C6
:101930000079022810D12CA000F064FA2948002177
:10194000016041600181264800F09BF801202A498E
:101950004870002008703AE02248007A142813DD0D
:101960002048C07880B94FF400612448FFF724FB79
:1019700023A000F047FA1B4800210160416001816B
:10198000174800F07EF822E016480079012813D1AC
:101990001EA000F037FA01F03DFF1248002101605F
:1019A000416001810E4800F06CF800201249487037
:1019B00008701A4908700AE019A000F023FA0948D3
:1019C0000021016041600181054800F05AF80120C2
:1019D000044908700121024800F050F810BD0000D1
:1019E00000080040E4310020C1A2BCB4BCECB2E26B
:1019F000C4A3CABD0D0A000034000020000C024040
:101A0000B9D8BBFAB4A6C0ED0D0A0000D7D4B6AF62
:101A1000BCECB2E2C4A3CABD0D0A00000500002060
:101A2000706173730D0A000010B501210E4800F0BB
:101A300034F8A0B10D480088401C0C4908800846C5
:101A400000881E280BD1002008800120488008490A
:101A5000087001F0D7FE1E2106A000F0D3F9012185
:101A6000014800F00BF810BD000C004036000020CB
:101A7000340000202564206F6B0D0A00CA430282E7
:101A8000704721B1028842F00102028004E002881E
:101A90004FF6FE731A400280704730B502460020B0
:101AA00000230024158A05EA0103958905EA01044B
:101AB00013B10CB1012000E0002030BD1AB18389C0
:101AC0000B43838102E083898B438381704700004D
:101AD00000220288184B98420ED0184B98420BD027
:101AE000B0F1804F08D0164B984205D0154B984264
:101AF00002D0154B984204D14FF68F731A404B8891
:101B00001A43124B984207D0114B984204D04FF61B
:101B1000FF431A400B891A4302804B68C3620B884B
:101B20000385054B984202D0044B984201D18B7A31
:101B300003860123838270470000014000040140B6
:101B40000004004000080040000C0040001000406D
:101B50000014004010B540F22551074800F08CF801
:101B600048B1054800F042F9044908700846017878
:101B7000014800F040F910BD001001401A0000209B
:101B800010B588B0044601210846FFF78DFB0121FE
:101B90001020FFF7B9FB072209212448FFF7E0F9DD
:101BA00007220A212148FFF7DBF94FF4C0600690B5
:101BB00002208DF81C008DF81D0000208DF81E00FD
:101BC00001208DF81F0006A91848FFF781F902943B
:101BD0000020ADF80C00ADF80E00ADF81000ADF827
:101BE00014000C20ADF8120002A9114800F094F87E
:101BF00001210F4800F027F840210D4800F01AF8A5
:101C0000012240F225510A4800F060F825208DF8A5
:101C1000040003208DF805008DF8060001208DF8E2
:101C2000070001A8FFF768FA08B010BD00000240E5
:101C30000010014001F40072B2F5007F00D100BF36
:101C4000CA430280704721B1828942F400528281E6
:101C500004E082894DF6FF731A4082817047024684
:101C60000020B1F5007F00D100BF13880B400BB1FD
:101C7000012000E00020704770B5024600240023D8
:101C80000025002040F66A16B14200D100BFC1F322
:101C9000421501F01F03012606FA03F3012D02D1BC
:101CA0009689334006E0022D02D1168A334001E0C6
:101CB000968A33400C12012606FA04F41688344042
:101CC00013B10CB1012000E0002070BDF0B5034657
:101CD000002400260025002040F66A17B94200D1F2
:101CE00000BF1846C1F3421401F01F06012707FA8E
:101CF00006F5012C01D10C3004E0022C01D110308A
:101D000000E014301AB107682F43076002E007684B
:101D1000AF430760F0BD00002DE9FF4705460E46C2
:101D20000024A14600BFA046B08900B100BF2C8AA4
:101D300024F44054F08804432C82AC8941F20C60B6
:101D40008443B08831890843718908430443AC81D6
:101D5000AC8A24F44074B0890443AC826846FFF72F
:101D6000E3FA2048854202D01F48854202D1DDF8BF
:101D70000C9001E0DDF80890A88900F4004040B123
:101D800009EBC90000EB091031684900B0FBF1F71D
:101D900007E009EBC90000EB091031688900B0FBCE
:101DA000F1F76420B7FBF0F004012009642101FB86
:101DB0001078A88900F4004040B1322000EBC80040
:101DC000B0FBF1F000F00700044308E0322000EB24
:101DD00008106421B0FBF1F000F00F0004432C81E7
:101DE000BDE8FF87001001400014014001468888CB
:101DF000C0F308007047C1F308028280704700BF3B
:101E0000FEE700000FB4054B10B503A9044A029881
:101E100000F018F810BC5DF814FB0000092600085B
:101E2000B001002002E008C8121F08C1002AFAD140
:101E300070477047002001E001C1121F002AFBD14A
:101E4000704700002DE9FF4F8DB09B460F460446BA
:101E5000002606E025280BD05A460F999047641CAF
:101E6000761C20780028F5D111B03046BDE8F08FFF
:101E70000025A8460122984900E0054314F8013FD7
:101E8000203B02FA03F00842F7D120782E2817D120
:101E900014F8010F45F004052A280ED06FF02F0228
:101EA0002078A0F1300109290AD808EB880102EB5B
:101EB000410100EB0108641CF2E757F8048B641C35
:101EC00020786C280DD004DC4C2812D06A2811D15F
:101ED00004E074280DD07A280CD10AE045F40015EE
:101EE00007E0617845F48015814202D1641C05F554
:101EF0008015641C2278692A45D008DC002AB3D0FA
:101F0000582A69D0632A10D0642A08D13BE0702A8D
:101F100067D0732A13D0752A5CD0782A5CD010461B
:101F20005A460F999047761CD3E017F8040B8DF8AA
:101F3000000000208DF80100E946012003E057F879
:101F4000049B4FF0FF3069074FF0000501D40AE011
:101F50006D1C45450DDA8542FADB19F8051000299C
:101F6000F6D106E06D1C8542FCDB19F8051000294E
:101F7000F8D12E4404E019F8010B5A460F99904706
:101F80006D1EF8D2A5E00A200021CDE90801C5F3B5
:101F9000025002280DD001CFC117031E71F10003BA
:101FA0000DDA4FF0000CD0EB0C006CEB01012D238F
:101FB00008E0FF1D27F00707F7E80201EDE72B0512
:101FC00004D52B238DF8283001233BE0EB0739D0D3
:101FD0002023F7E70A2000E010200021CDE90801C6
:101FE00007E01020002145F00405CDE908014FF07D
:101FF0000808C5F3025002280FD001CF00214FF08E
:10200000000A2B071FD5702A0DD0DDE908C38CF01C
:10201000100C5CEA030C0CD015E0FF1D27F007073D
:10202000F7E80201EBE740228DF828204FF0010A83
:102030000BE050EA010306D030238DF828308DF8EC
:10204000292002239A46582A04D024A20DF12009FF
:102050000B9209E026A2F9E7DDE90823FEF79EFAD4
:102060000B9B9B5C09F8013D50EA0102F4D1ADEBFA
:10207000090020300890680701D44FF00108089942
:10208000884502DDA8EB010000E000208046002525
:1020900006E00AA85A46405D0F9990476D1C761CD1
:1020A0005545F6DB04E030205A460F999047761CE0
:1020B000B8F10001A8F10108F5DC05E019F8010B01
:1020C0005A460F999047761C0899481E0890002997
:1020D000F4DC641CC5E6000009280100303132330D
:1020E0003435363738396162636465660000000054
:1020F000303132333435363738394142434445463E
:10210000000000002DE9FF5F0546109F4FF0000A18
:1021100000200390834602908146804600260024DA
:10212000E1200190092000905848008800F1350610
:1021300022E04FF6FF7000EA450206FB05F04FF47F
:10214000203303EB40013846FEF70AFE5048018871
:102150000098081AC41E09E017F81400012101EBC9
:102160004401795C40EA012AD344641C4848008851
:10217000C01EA042F0DC761C444800884E308642E7
:10218000D7DB4248008800F1350624E04FF6FF70A7
:1021900000EA450206FB05F04FF4203303EB400153
:1021A0003846FEF7DDFD3A484088C41C0BE017F8BE
:1021B0001400012101EB4401795C40EA012A0298F4
:1021C00050440290641C3248418800980844C01C66
:1021D000A042ECDC761C2D4800884E308642D5DBD0
:1021E0002A48008800F1350620E04FF6FF7000EA2B
:1021F000450206FB05F04FF4203303EB400138465F
:10220000FEF7AEFD22480088C41D09E017F814004F
:10221000012101EB4401795C40EA012AD044641CAD
:102220001B4800881030A042F0DC761C174800885C
:102230004E308642D9DB0198B8FBF0F80198BBFB21
:10224000F0FBDDE90110B0FBF1F002900298584478
:102250004FEA5009C1450BD9A9EB080040F28A2189
:10226000884202D90120039004E00020039001E09D
:1022700000200390A9EB08034A46414605A0FFF75A
:10228000C1FD039804B0BDE8F09F000028000020C5
:102290002C0000204320206772617956616C7565BF
:1022A000203D2025642067726179203D202564202F
:1022B00025640D0A0000000010B5024600200AE067
:1022C000135C33B1214B18801B885B1E1F4C23808D
:1022D00003E0431C98B28842F2DB00BF431C98B273
:1022E0000AE0135C33B9194B58805B885B1C174CB0
:1022F000638003E0431C98B28842F2DB00BF431CBA
:1023000098B20AE0135C33B1104B98809B885B1E37
:102310000E4CA38003E0431C98B28842F2DB00BF5E
:10232000431C98B20BE0135C3BB9084BD880DB88A8
:102330005B1C9CB2054BDC8003E0431C98B28842D6
:10234000F1DB00BF431C98B210BD00002C00002040
:102350002DE9FE4F8046894692461C46DDE90D5721
:102360000C9E2346524649464046CDE90157009609
:1023700001F08EFA2346524649464046CDE90157C0
:10238000009600F03DF81B480088A04204DB60196D
:1023900018490988884202DA0020BDE8FE8F1648F5
:1023A000008814490988884204DB601912490988A9
:1023B000884201DA0020F0E70F4800880D490988BB
:1023C000401A0A2801DA0020E7E70C4840880B4948
:1023D0000988401A0A2801DA0020DEE70748C08889
:1023E00006498988401A0A2801DA0020D5E7012029
:1023F000D3E70000280000202A0000202C00002045
:102400002DE9F04FD1B0814615461E46DDF868B182
:102410005C9F4FF4A07101A8FDF7D9FE4FF00008B2
:102420000024A2464FF6FF7000904FF4A07101A85F
:10243000FDF7CDFE2C4622E0B0461BE008FB09F07C
:102440004FF4203202EB400000EB440102223846F8
:10245000FEF786FC3878797840EA012A00988245B0
:1024600004D001A8005D401C01A90855CDF800A0CA
:1024700008F101085B9830444045DFDC641C05EB43
:102480000B00A042D8DC4FF4A07101A8FFF714FFA5
:1024900051B0BDE8F08F002105E0002200E0521CA1
:1024A000642AFCD3491C8142F7D3704770B50446B7
:1024B0004FF4077094FBF0F0C6B24FF4077094FB32
:1024C000F0F100FB114085B205E04FF4077000F019
:1024D00009F8701EC6B2002EF7D115B1284600F0DB
:1024E00001F870BD0146114A12884A434FF0E023BB
:1024F0005A6100229A611A46126942F001021A6179
:1025000000BF4FF0E022106900F001021AB100F4A0
:102510008032002AF5D04FF0E022126922F0010249
:102520004FF0E0231A6100229A61704718000020E2
:102530000146114A12784A434FF0E0235A610022C3
:102540009A611A46126942F001021A6100BF4FF007
:10255000E022106900F001021AB100F48032002A72
:10256000F5D04FF0E022126922F001024FF0E02393
:102570001A6100229A6170471600002070B500248D
:1025800018E0002001F098FA04F1B001C8B201F09F
:1025900093FA002001F090FA102001F08DFA002546
:1025A00004E0002001F0C6FA681CC5B2842DF8DBF7
:1025B000601CC4B2092CE4DB70BD000002460020A0
:1025C00000BF07E0135C022B02DD044B188070474C
:1025D000431CD8B28842F5DB00BFF8E72800002092
:1025E000024600204B1ED8B207E0135C022B02DD2E
:1025F000044B18807047431ED8B20028F5DC00BF9A
:10260000F8E700002A00002070B504460D46E1B24C
:102610000548FFF7F0FB00BF80210348FFF71FFBD1
:102620000028F9D0204670BD0010014010B51348B5
:10263000FEF709FBC0F5806011490860FEF7D0F98C
:1026400010490E48FEF70CFA0C48FEF700FB08B9DB
:102650000D4C00E00D4C0A4909688A000C490968D4
:102660000803214601F0CEF90948016809A0FFF7E7
:10267000C9FB01200D49087010BD0000286402400C
:102680000000002000880010B4110020B4210020B8
:102690002000002064636D6944617461436F756E4E
:1026A00074203D2025640D0A000000000400002075
:1026B00010B54FF480610248FEF775FC10BD0000B4
:1026C000000C02402DE9FC5F074698460E9E07FB72
:1026D00008F04FEA400A0D98404478434FEA400B17
:1026E000CBF30F3001904FEA1A3A0024A146264856
:1026F0000088000200900025CBF30B0018B1019870
:10270000401C80B201900AF0FF0538E04FF4203001
:1027100000EB05314FF480523046FEF721FB0024D8
:1027200018E016F81400012101EB4401715C40EA45
:1027300001290098814502DD4FF6FF7000E000207E
:10274000814606F814904FEA1920012101EB44015B
:102750007054641CB4F5006FE3DB4FF4203101EBDF
:102760000530012101F0E6F84FF4203101EB05308E
:102770004FF48052314601F045F9681CC5B201980A
:102780008542C3DBBDE8FC9F260000202DE9F04F09
:10279000ADF5017D064617469846DDF828B2DDF80E
:1027A00030924FF4007101A8FDF711FD4FF0000ABF
:1027B00000240025C2462EE04FF6FF7000EA4602D4
:1027C0000AFB06F04FF4203303EB40014846FEF7C6
:1027D000C7FA3C4619E019F81400012101EB440145
:1027E00019F8011040EA0125E91705EB11610912FA
:1027F00001AA32F81110491C2846EA1705EB1262AB
:10280000121201AB23F81210641C07EB0B00A0425C
:10281000E1DC0AF1010A8B9840445045CCDC01AA66
:1028200058468B9900F034FB0DF5017DBDE8F08F23
:102830002DE9FE4F82468B46DDE90C890E9C002770
:10284000002500262246F0214FF4A07000F063F826
:1028500022464FF4A071F02000F047FD28206421AB
:102860005A233C22CDE901040091C100F020FFF77A
:102870008DFF282064215A233C22CDE901040091D8
:10288000C100F020FFF71EFF282064215A233C22BC
:10289000CDE901040091C100F020FFF759FD074682
:1028A000012F31D1282064215A233C22CDE9010493
:1028B0000091C100F020FFF725FC05462820642187
:1028C0005A233C22CDE901040091C100F02000F020
:1028D0008DFE06462DB969223C21042000F066F8E1
:1028E00017E0012D06D12EB92D223C21042000F045
:1028F0005DF80EE0012D0CD1012E0AD12B223C21D6
:10290000042000F053F804E065223C21042000F08C
:102910004DF8BDE8FE8F2DE9F84F80468A461646F1
:102920004FF0000900270020009000242825A8F17E
:1029300001072CE04FF0000926E009FB08F04000F9
:1029400000EB470102226846FEF70AFA9DF80020D4
:102950002046611C8CB232549DF801202046611C37
:102960008CB23254B4F5805F0CD12803012100F001
:10297000E1FF28034FF48052314601F043F8002470
:10298000681CC5B209F10109D145D6DB7F1E002FB5
:10299000D0DA44B12803012100F0CCFF28032246FD
:1029A000314601F02FF8BDE8F88F00002DE9F84F0F
:1029B00006468A46914600270024A34600254FF08C
:1029C000190800200090344618E0002001F074F847
:1029D00004F1B001C8B201F06FF8002001F06CF80A
:1029E000102001F069F8002504E0002001F0A2F8B1
:1029F000681CC5B2842DF8DB601CC4B2F01C844294
:102A0000E3DBB9F12B0F02D14D48009070E0B9F132
:102A10002D0F02D14B4800906AE0B9F1690F32D115
:102A200000272CE04FF0000B002420E006F1B0015D
:102A30002144C8B201F040F8102141EA281001F009
:102A40003BF808F00F0001F037F800250BE03E4995
:102A500001EB071359464A1C02F0FF0B585C01F0CA
:102A600069F8681CC5B2082DF1DB601CC4B2022CE9
:102A7000DCDB08F1080000F0FF08781CC7B2072F64
:102A8000D0DBBDE8F88FB9F1650F31D100272CE01C
:102A90004FF0000B002420E006F1B0012144C8B241
:102AA00001F00AF8102141EA281001F005F808F0B9
:102AB0000F0001F001F800250BE0244901EB07139A
:102AC00059464A1C02F0FF0B585C01F033F8681CB1
:102AD000C5B2082DF1DB601CC4B2022CDCDB08F1AE
:102AE000080000F0FF08781CC7B2052FD0DBC8E74C
:102AF000002421E006F1B0012144C8B200F0DCFF5F
:102B0000102141EA2A1000F0D7FF0AF00F0000F070
:102B1000D3FF00250CE059464A1C02F0FF0B009A37
:102B2000505C01F007F80120FFF7C0FC681CC5B23B
:102B3000082DF0DB601CC4B2022CDBDB00BFA0E779
:102B40004000002050000020F00000206001002024
:102B50002DE9F04100240025A0461926002700BFDA
:102B60002DE04FF00008002522E005F1B001C8B2C9
:102B700000F0A2FF102141EA261000F09DFF06F0B0
:102B80000F0000F099FF00270EE00F4901EB04133E
:102B900041464A1C02F0FF08585C00F0CBFF0120C0
:102BA000FFF784FC781CC7B2082FEEDB681CC5B2A7
:102BB000022DDADB06F10800C6B2601CC4B2092C93
:102BC000CFDBBDE8F0810000600000201CB50121D2
:102BD0000820FEF769FB01210220FEF765FB0120BA
:102BE0008DF804000220009003208DF805000020DD
:102BF0008DF8060001208DF8070069460E48FEF7A3
:102C000067F90420009069460B48FEF761F901203E
:102C1000009069460848FEF75BF94FF400600090A9
:102C200069460648FEF754F94FF480600090694603
:102C30000248FEF74DF91CBD000C024000040240A2
:102C400010B5FFF7C3FF00F093FCFFF797FCFFF709
:102C50007FFF10BD1CB501211420FEF725FB0120CC
:102C60008DF804008002009003208DF805000020FC
:102C70008DF8060001208DF8070069460C48FEF724
:102C800027F94FF480610A48FEF798F90820009070
:102C900069460848FEF71CF908210648FEF78EF938
:102CA0000120054908600549C1F88C021CBD0000DF
:102CB0000008024000100240A802414200004242C7
:102CC000A820FEF7BBFD4FF4A060FEF751FA4FF4C9
:102CD0006120FEF755FFFFF7BDFF00F0E7FA42F273
:102CE000CF0140F2E73000F05BFD42F2CF0142F24B
:102CF0000F7000F097FDFFF7A3FF00F04BFE06E01A
:102D000006A0FFF77FF84FF47A70FFF7CFFB00F0D3
:102D10000FFA0028F4D100F009F800004F563536BC
:102D20003430204552524F520D0A00000EB5FEF7C6
:102D300087FAFEF749F94FF48060030102464049E3
:102D400000904048FDF78AFDF0234FF4A072002167
:102D50000420FEF717FA3CA0FFF754F86FE03D4857
:102D60004078012803D03B480078012819D1394820
:102D70000278417838A0FFF745F85021002000F094
:102D8000D9FDFDF721FE33484078012802D13A49A8
:102D9000087002E000203849087000202D49487072
:102DA00008703648007855282ED1002500240A20C6
:102DB000FFF77CFB002600BF1FE0C5EB05104FF4BA
:102DC000203202EB40114FF4F0722D48FDF7C8FF9E
:102DD0002B4E00240CE0315D2A48FFF70CF800BFB1
:102DE00080212848FEF73BFF0028F9D0601C84B200
:102DF000B4F5F07FEFDB681C85B2B5F5A07FDCDBB6
:102E0000FF201E49087000BF1F480078012816D116
:102E10001B48282164225A23CDE9002102903C223C
:102E2000C900F020FFF704FD00201749087017497A
:102E3000086011480078012801D1064948708EE7E2
:102E4000B4210020B41100204F5635363430204FC5
:102E50004B0D0A00340000206D616E75616C4D6F82
:102E60006465203D202564206175746F4D6F646535
:102E7000203D2025640D0A00050000201A000020D6
:102E8000B4010020001001400400002020000020B8
:102E90002DE9F0472DED108BADF5846D0746884682
:102EA00091469FED9E0BB0EE408AF0EE608A9FED5A
:102EB0009B0BB0EE409AF0EE609A9FED980BB0EE4F
:102EC00040AAF0EE60AA9FED950BB0EE40BAF0EE8E
:102ED00060BA9FED920BB0EE40CAF0EE60CA9FED73
:102EE0008F0BB0EE40DAF0EE60DA9FED8C0BB0EEB7
:102EF00040EAF0EE60EA9FED890B0DF5806080ED11
:102F0000060B4FF4806106A8FDF761F9002607FB68
:102F100008FA00BF29E05046FDF7ECFACDE90201BE
:102F200039F81600FDF7E6FA41EC1F0B9FED7D0B1B
:102F300053EC102BFDF7FDF9CDE900019DED020BDF
:102F400053EC102B9DED000B51EC100BFDF763FAC9
:102F5000CDE904019DED040B51EC100BFDF702FBD4
:102F600006A941F82600701C86B2FF2ED3DD00258D
:102F7000CBE09FED6A0BB0EE40EAF0EE60EAB0EE17
:102F800040DAF0EE60DAB0EE40CAF0EE60CAB0EEC1
:102F900040BAF0EE60BAB0EE40AAF0EE60AAB0EE31
:102FA000409AF0EE609AB0EE408AF0EE608A00241B
:102FB00058E0AC422ADC06A800EB840090ED000A41
:102FC00010EE101A0846FDF7A2FA41EC1F0B53EC65
:102FD000182BFDF707F941EC180B06A800EB84004D
:102FE000D0ED000A00EE104AB8EE400A20EE800A4A
:102FF00010EE101A0846FDF78AFA41EC1F0B53EC4D
:103000001A2BFDF7EFF841EC1A0B29E006A800EBAC
:10301000840090ED000A10EE101A0846FDF777FACA
:1030200041EC1F0B53EC192BFDF7DCF841EC190BAD
:1030300006A800EB8400D0ED000A00EE104AB8EEBE
:10304000400A20EE800A10EE101A0846FDF75FFADB
:1030500041EC1F0B53EC1B2BFDF7C4F841EC1B0B91
:10306000601C84B2FF2CA4DD53EC182B51EC1A0B1E
:10307000FDF7D1F941EC1C0B53EC192B51EC1B0B58
:10308000FDF7C9F941EC1D0B53EC1D2B51EC1C0B4A
:10309000FDF749F941EC1F0B53EC1D2B51EC1C0BB8
:1030A000FDF741F953EC192BCDE9020151EC180B56
:1030B000FDF73FF9CDE900019DED020B53EC102B1C
:1030C0009DED000B51EC100BFDF733F953EC1F2B6A
:1030D000CDE904019DED040B51EC100BFDF729F92E
:1030E00041EC1E0B0DF5806292ED060B53EC102B9C
:1030F00051EC1E0BFDF71EFA05D20DF5806080ED38
:1031000006EB0A480580681C85B2FF2D7FF731AFBA
:103110000DF5846DBDEC108BBDE8F087000000005C
:1031200000000000000000000000F03F260000202A
:103130007CB5002401210220FEF7B6F84FF42040B0
:10314000009001208DF8040000208DF80600022078
:103150008DF8050001208DF8070069462948FDF724
:10316000B7FE0020284908601420FFF79FF90020CF
:103170002649C1F8BC020520FFF798F90120224931
:1031800008601420FFF792F9FEF742F90520FFF7D7
:103190008DF943F20A00FEF735F805464FF6FF7049
:1031A00000EA052543F20B00FEF72CF8054345F233
:1031B0004060854205D0294615A0FEF723FE012078
:1031C0007CBD112143F20310FEF74EF86420FFF797
:1031D0006DF9822143F20800FEF746F86420FFF7FC
:1031E00065F900240AE00C4A02EB840291780A4A4D
:1031F00032F82400FEF738F8601C84B2CF2CF2D3EA
:103200000020DDE700040240B482404200804042DA
:1032100049443A25640D0A000C3D00081CB5012103
:103220008803FEF771F80A210320FEF75BFA4FF4DA
:103230008060009000208DF8040010208DF80500BB
:1032400001208DF806006846FDF7F8FD4FF4806018
:10325000FDF7E2FD1CBD00001CB501210820FEF7B2
:1032600023F800208DF804004FF4806000900120C6
:103270008DF8070069460C48FDF72AFE0121082059
:10328000FEF712F801208DF80400C0020090012022
:103290008DF8070069460448FDF71AFE4FF40061F7
:1032A0000148FDF78BFE1CBD000C024010B5FFF776
:1032B000D3FFFFF7B3FF00F009F8034800210160D6
:1032C0004160018110BD0000E431002008B52820D4
:1032D0008DF8000001208DF801008DF802008DF8B6
:1032E00003006846FDF708FF08BD2DE9F74F82B0DF
:1032F000164600240027A046DDE9020148434000AD
:1033000000900098C0F30F3B00250098C0F30B001D
:1033100018B10BF101001FFA80FB002558E04FF4B3
:10332000203000EB05314FF480523046FDF718FD98
:10333000002438E016F81400012101EB4401715C0F
:1033400040EA012707F478400012019007F4FC607E
:103350004FEAE009F8064FEA106A09EB8900C0EB72
:1033600089110198C0EB001001EB40000AEB4A0103
:1033700001EBCA0108443230642190FBF1F000F007
:10338000FF0808F0F800000208F0FC0140EAC10064
:1033900040EAD80706F81470380A012101EB44010D
:1033A0007054601C84B2B4F5006FC3DB4FF420315D
:1033B00001EB0530012100F0BDFA4FF4203101EBA3
:1033C00005304FF48052314600F01CFB681CC5B23A
:1033D0005D45A4DB05B0BDE8F08F000010B501220B
:1033E00002210648FEF756F9012211460348FEF76E
:1033F00051F900F033F800F003F810BD003001403F
:1034000000B58FB001218805FDF74EFF4FF0C06079
:1034100000900F4801900F48029000200390202058
:103420000490002005904FF48060069000200890E2
:10343000079009900A900B9003200C9000200D90AB
:103440000E9069460448FDF75DFC0FB000BD00001A
:103450000C300140D43100204064024000B58FB0F0
:1034600001218805FDF720FF4FF0C06000900F4854
:1034700001900F48029040200390202004900020EB
:1034800005904FF480600690002008900790099006
:103490000A900B9003200C9000200D900E9069462E
:1034A0000448FDF72FFC0FB000BD00000C300140B8
:1034B000C4310020586402401CB501210220FDF7F0
:1034C000F3FE052203211048FDF74AFD05220421E1
:1034D0000D48FDF745FD052211460B48FDF740FD5F
:1034E0003820009002208DF8040000208DF806009E
:1034F00003208DF8050001208DF807006946024879
:10350000FDF7E6FC1CBD00000004024000B585B0DC
:1035100001210803FDF7F8FE0020ADF800004FF48C
:103520008270ADF802000020ADF804000220ADF872
:1035300006000120ADF808004002ADF80A000020A6
:10354000ADF80C00ADF80E000720ADF8100069468C
:103550000648FEF7A8F801210448FEF785F8712116
:103560000248FEF78DF805B000BD000000300140B4
:1035700010B502211C48FDF721FD1E20FEF78BFF30
:1035800002211948FDF718FD1E20FEF784FF0221D5
:103590001548FDF713FD6420FEF77DFFE22000F0E3
:1035A0008BFA0A20FEF777FFA22000F085FAA02010
:1035B00000F082FAC82000F07FFA232000F07CFAA5
:1035C000812000F079FA322000F076FA2F2000F006
:1035D00073FAB02000F070FAAF2000F06DFAA62068
:1035E00000F06AFA10BD0000000C02402DE9FF5FF8
:1035F0000546109F4FF0000A00200390834602907A
:103600008146804600260024E12001900920009098
:103610005848008800F1350622E04FF6FF7000EAB6
:10362000450206FB05F04FF4203303EB400138461A
:10363000FDF796FB504881880098081AC41E09E0DF
:1036400017F81400012101EB4401795C40EA012ADA
:10365000D344641C48488088C01EA042F0DC761C1D
:10366000444800884E308642D7DB4248008800F14B
:10367000350624E04FF6FF7000EA450206FB05F030
:103680004FF4203303EB40013846FDF769FB3A481D
:10369000C088C41C0BE017F81400012101EB4401A1
:1036A000795C40EA012A029850440290641C324836
:1036B000C18800980844C01CA042ECDC761C2D4850
:1036C00000884E308642D5DB2A48008800F1350656
:1036D00020E04FF6FF7000EA450206FB05F04FF4CC
:1036E000203303EB40013846FDF73AFB224880883F
:1036F000C41D09E017F81400012101EB4401795CB5
:1037000040EA012AD044641C1B4880881030A04243
:10371000F0DC761C174800884E308642D9DB0198D1
:10372000B8FBF0F80198BBFBF0FBDDE90110B0FB42
:10373000F1F00290029858444FEA5009C1450BD964
:10374000A9EB080040F28A21884202D901200390A7
:1037500004E00020039001E000200390A9EB08039F
:103760004A46414605A0FEF74DFB039804B0BDE86C
:10377000F09F0000280000202C000020542020672B
:1037800072617956616C7565203D202564206772F1
:103790006179203D2025642025640D0A0000000089
:1037A0007FB505460C4601210420FDF79DFD0295DD
:1037B000ADF804400020ADF80C00ADF8060001A9FA
:1037C0000F48FEF785F9012211460D48FEF776F9FC
:1037D00001210B48FEF752F900210948FEF751F983
:1037E0001E208DF8000002208DF8010003208DF8C6
:1037F000020001208DF803006846FDF77DFC7FBDC7
:103800000008004010B500210148FEF73AF910BD4C
:10381000000C004010B501210148FEF732F910BD3F
:10382000000C00407FB505460C4601210820FDF73D
:103830005BFD0295ADF804400020ADF80C00ADF83A
:10384000060001A91048FEF743F9012211460E486F
:10385000FEF734F901210C48FEF710F932208DF8FB
:10386000000003208DF801008DF8020001208DF882
:1038700003006846FDF740FC00210348FEF701F90C
:103880000248002101607FBD000C0040360000208E
:103890002DE9F04FBDB0064617469846DDF818B141
:1038A000DDF82091F02101A8FCF791FC002500240F
:1038B000A2464FF6FF700090F02101A8FCF787FCAC
:1038C000454627E04FF6FF7000EA460205FB06F08A
:1038D0004FF4203303EB40014846FDF741FA3C46E4
:1038E00013E019F81400012101EB440119F801104B
:1038F00040EA012A0098824504D001A8405D401C9E
:1039000001A94855CDF800A0641C07EB0B00A042AC
:10391000E7DC6D1C47984044A842D3DCF02101A8A5
:10392000FEF74CFEF02101A8FEF75AFE3DB0BDE8BF
:10393000F08F000070B504460D46002600BF24E05D
:103940000220134948830620FDF776FE0220104925
:10395000088300F03FF802200D4948832020FDF73E
:103960006BFEC4F30740FDF767FEC4F30720FDF7C5
:1039700063FEE0B2FDF760FE02200549088300F017
:1039800029F804F58054701C86B2AE42D8DB70BDB5
:10399000000002401CB501210846FDF785FC02200D
:1039A000009001208DF8040000208DF8060003200F
:1039B0008DF8050001208DF8070069460448FDF7E1
:1039C00087FA022002490883FDF72EFE1CBD000085
:1039D0000000024010B5FF2402200949488300BFBF
:1039E0000520FDF729FEFF20FDF726FE044604F022
:1039F00001000028F4D102200149088310BD000015
:103A0000000002402DE9F04705460E461446E7B295
:103A1000C4F30F294FF0000800BF0DE04FF480728F
:103A20003146284600F012F805F5807506F58076D7
:103A300008F101001FFA80F8C845EFDB27B13A46CC
:103A40003146284600F002F8BDE8F0872DE9F04144
:103A500004460F46154600260DB9BDE8F081022048
:103A6000144948830620FDF7E7FD02201149088329
:103A7000FFF7B0FF02200F494883FDF7DDFDC4F3D7
:103A80000740FDF7D9FDC4F30720FDF7D5FDE0B2EF
:103A9000FDF7D2FD002604E0B85DFDF7CDFD701CFA
:103AA00086B2AE42F8DB022002490883FFF792FF9C
:103AB00000BFD2E70000024070B5044604211B4855
:103AC000FDF77AFA01211948FDF776FA002520E082
:103AD00004F0800028B14FF400611548FDF76EFA3C
:103AE00004E04FF400611248FDF766FA4FF480617C
:103AF0000F48FDF761FA0520FEF71AFD4FF48061CB
:103B00000B48FDF75BFA0520FEF712FD6006040E78
:103B10006D1C082DDCDB4FF480610548FDF74CFA85
:103B200004210248FDF74AFA70BD0000000C024073
:103B30000004024070B5044604211B48FDF73CFA1E
:103B400001211948FDF73AFA002520E004F0800031
:103B500028B14FF400611548FDF730FA04E04FF446
:103B600000611248FDF728FA4FF480610F48FDF715
:103B700023FA0520FEF7DCFC4FF480610B48FDF7CB
:103B80001DFA0520FEF7D4FC6006040E6D1C082DFE
:103B9000DCDB4FF480610548FDF70EFA0421024892
:103BA000FDF70CFA70BD0000000C0240000402405A
:103BB000004330001F5000003530210036306900CE
:103BC000073C070020384600213820001438110037
:103BD00015381100003800000138000002380000DC
:103BE0000338000004380A0005383F000638070093
:103BF00007389F0008380200093880000A380100A1
:103C00000B38E0000C380B000D381C000E38070094
:103C10000F38B000133804001836040012362B0099
:103C2000093712000C370000044006000230000083
:103C30000630FF0013470300074401000B46350020
:103C40000C46220037481600243802000150A30019
:103C50000335000000436F001F5001003530710034
:103C600036304900073C0700203846002138000064
:103C700014383100153831000038000001380000D8
:103C8000023800000338000004380A0005383F00FD
:103C90000638070007389F0008380A000938200056
:103CA0000A3807000B3898000C380C000D388000DB
:103CB0000E3807000F38D000133804001836000003
:103CC00012362900093752000C370300023A02006D
:103CD000033AE000143A0200153AE0000440020002
:103CE00002301C000630C3001347030007440400E1
:103CF0000B4637000C4620003748160024380400D5
:103D00000150A300033500000135000008304200D7
:103D1000033103001730FF001830FF0034301A0061
:103D200037301300083101003036360031360E00CE
:103D30003236E200333612002136E0000437A000AC
:103D400003375A0015377800173701000B3760002A
:103D500005371A00053902000639100001390A003A
:103D60003137120000360800013633002D30600074
:103D7000203652001B3720001C475000133A4300E6
:103D8000183A0000193AF8003536130036360300A9
:103D90003436400022360100013C3400043C280047
:103DA000053C9800063C0000073C0800083C000069
:103DB000093C1C000A3C9C000B3C400010380000F1
:103DC000113810001238000008376400014002006A
:103DD00005401A00003000000430FF000E3058008B
:103DE0002E300000004330001F5000000E44000041
:103DF0000050A7000F3A3000103A28001B3A30005C
:103E00001E3A2600113A60001F3A140000582300A1
:103E10000158140002580F0003580F0004581200F4
:103E20000558260006580C000758080008580500D9
:103E3000095805000A5808000B580D000C580800D6
:103E40000D5803000E5800000F58000010580300D2
:103E500011580900125807001358030014580000A5
:103E600015580100165803001758080018580D007F
:103E7000195808001A5805001B5806001C5808005D
:103E80001D580E001E5829001F58170020581100F9
:103E900021581100225815002358280024584600A4
:103EA0002558260026580800275826002858640060
:103EB000295826002A5824002B5822002C58240068
:103EC0002D5824002E5806002F582200305840004C
:103ED0003158420032582400335826003458240008
:103EE00035582200365822003758260038584400EA
:103EF000395824003A5826003B5828003C584200C4
:103F00003D58CE008051FF008151F20082510000E7
:103F100083511400845125008551240086510900E5
:103F20008751090088510900895175008A51540050
:103F30008B51E0008C51B2008D5142008E513D00FA
:103F40008F515600905146009151F8009251040053
:103F5000935170009451F0009551F0009651030078
:103F60009751010098510400995112009A51040090
:103F70009B5100009C5106009D5182009E513800CB
:103F80008054010081540800825414008354280096
:103F900084545100855465008654710087547D0017
:103FA00088548700895491008A549A008B54AA003F
:103FB0008C54B8008D54CD008E54DD008F54EA002F
:103FC00090541D0081531E0082535B0083530800F0
:103FD00084530A0085537E008653880087537C00F3
:103FE00088536C00895310008A5301008B5398004A
:103FF00080550600835540008455100089551000F7
:104000008A5500008B55F8001D50400000530800F1
:104010000153300002531000035300000453080002
:1040200005533000065308000753160009530800D3
:104030000A5330000B5304000C53060025500000B7
:104040000830020040472100020FD6020A39C2019F
:10405000222200020FB2E51F7072F51ED235FFEF6B
:1040600025E0244EF8E4F608F60FBF34F2900E93E4
:10407000E493FFE54BC39F50047F0580027FFB78EC
:10408000BDA607120F0440047F0380027F3078BC76
:10409000A607E618F608E678B9F678BCE678BAF628
:1040A00078BF7633E408F678B87601754A0278B6B8
:1040B000F608F674FF78C1F608F6751F0178BCE6BD
:1040C00075F005A4F54B120AFFC2372278B8E6D383
:1040D000940040021622E51FB40523E4F51FC20137
:1040E00078B6E6FE08E6FF784EA60608A607A237D1
:1040F000E433F53C903028F0751E10D23522E54BA4
:1041000075F0058478BCF6900E8CE493FF25E024CE
:104110000AF8E6FC08E6FD78BCE625E0244EF8A6A1
:104120000408A605EF120F0BD378B796EE18964049
:104130000D78BCE678B9F678B6A60608A607900E04
:104140008CE493120F0BC378C296EE1896500D783C
:10415000BCE678BAF678C1A60608A60778B6E6FEE9
:1041600008E6C378C296FFEE189678C3F608A6074D
:10417000900E95E418120EE94002D23778BCE6089A
:104180002608F6E51F6401704AE6C378C0120EDF08
:104190004005120EDA4039120F0240047FFE800201
:1041A0007F0278BDA60778B9E6240378BFF678B910
:1041B000E624FD78C0F6120F02400678C0E6FF80C4
:1041C0000478BFE6FF78BEA607751F0278B87601AF
:1041D00002024AE51F6402600302022A78BEE6FF7B
:1041E000C378C0120EE04008120EDA500302022813
:1041F000120F0240047FFF80027F0178BDA607787E
:10420000B9E60478BFF678B9E61478C0F618120F4C
:10421000044004E6FF80027F0078BFA607D308E6CB
:10422000648094804004E6FF80027F0078C0A60787
:10423000C318E6648094B35004E6FF80027F3378AD
:10424000BFA607C308E6648094B35004E6FF80026B
:104250007F3378C0A607120F02400678C0E6FF80C1
:104260000478BFE6FF78BEA607751F0378B876010D
:104270008020E51F6403702678BEE6FFC378C01275
:104280000EE04005120EDA400978B9E678BEF67500
:104290001F0478BEE675F005A4F54B020AFFE51F82
:1042A000B40410900E94E478C3120EE94002D237A1
:1042B000751F05223001030204C03002030204C04E
:1042C0009051A5E07893F6A3E008F6A3E008F6E5A0
:1042D0001F703C751E20D235120C7A787EA6060817
:1042E000A607788BA609187601120C5B784EA606F5
:1042F00008A607788BE6786EF6751F017893E67846
:1043000090F67894E67891F67895E67892F62279A8
:1043100090E7D37893964005E796FF8008C379939A
:10432000E7789096FF7888760008A6077991E7D31A
:104330007894964005E796FF8008C37994E77891D2
:1043400096FF120C8E7992E7D37895964005E79602
:10435000FF8008C37995E7789296FF120C8E120CB5
:104360005B788AE625E0244EF8A60608A607788A38
:10437000E6246EF8A609788AE62401FFE433FED32A
:10438000EF940FEE6480948040047F008005788A6B
:10439000E604FF788AA607E51FB4010AE660030277
:1043A00004C0751F0222120C7A7880A60608A607A0
:1043B000120C7A7882A60608A607786EE6788CF644
:1043C000786EE6788DF67F01EF25E0244FF9C3780B
:1043D00081E69718E61997500A120C827880A60495
:1043E00008A605746E2FF9788CE6C3975008746E92
:1043F0002FF8E6788CF6EF25E0244FF9D37883E6A2
:104400009718E61997400A120C827882A60408A62B
:1044100005746E2FF9788DE6D3974008746E2FF8E7
:10442000E6788DF60FEF6410709EC37981E778838C
:1044300096FF19E718967884F608A607C3798CE7E3
:10444000788D9608F6D37981E7787F9619E71896E4
:10445000400509E7088006C3797FE7788196FF1950
:10446000E71896FE7886A60608A607798CE7D37823
:104470008B964005E796FF8008C3798BE7788C968A
:10448000FF788FA607E51F64027069900E9193FF75
:1044900018E6C39F5072120C4A120C2F900E8E1207
:1044A0000C387880120C6B7B04120C1DC31206456D
:1044B0005056900E92E493FF788FE69F4002801151
:1044C000900E90E493FFD37889E69F18E69400401D
:1044D00003751F05120C4A120C2F900E8F120C3808
:1044E000787E120C6B7B40120C1DD31206454018CF
:1044F000751F0522E51FB4050FD201C202E4F51FA6
:10450000F51ED235D233D23622EF8DF0A4A8F0CFEB
:104510008CF0A428CE8DF0A42EFE22BC000BBE0091
:1045200029EF8DF084FFADF022E4CCF875F008EFB0
:104530002FFFEE33FEEC33FCEE9DEC984005FCEED5
:104540009DFE0FD5F0E9E4CEFD22EDF8F5F0EE8406
:1045500020D21CFEADF075F008EF2FFFED33FD40CB
:1045600007985006D5F0F222C398FD0FD5F0EA2245
:10457000E88FF0A4CC8BF0A42CFCE98EF0A42CFCEA
:104580008AF0EDA42CFCEA8EF0A4CDA8F08BF0A468
:104590002DCC3825F0FDE98FF0A42CCD35F0FCEBC7
:1045A0008EF0A4FEA9F0EB8FF0A4CFC5F02ECD398C
:1045B000FEE43CFCEAA42DCE35F0FDE43CFC227583
:1045C000F008758200EF2FFFEE33FECD33CDCC33F4
:1045D000CCC58233C5829BED9AEC99E58298400C5C
:1045E000F582EE9BFEED9AFDEC99FC0FD5F0D6E43A
:1045F000CEFBE4CDFAE4CCF9A88222B800C1B90020
:1046000059BA002DEC8BF084CFCECDFCE5F0CBF980
:104610007818EF2FFFEE33FEED33FDEC33FCEB3378
:10462000FB10D703994004EB99FB0FD8E5E4F9FAA6
:10463000227818EF2FFFEE33FEED33FDEC33FCC98B
:1046400033C910D7059BE99A4007EC9BFCE99AF91E
:104650000FD8E0E4C9FAE4CCFB2275F010EF2FFF8D
:10466000EE33FEED33FDCC33CCC833C810D7079BF7
:10467000EC9AE899400AED9BFDEC9AFCE899F80F5A
:10468000D5F0DAE4CDFBE4CCFAE4C8F922EB9FF5EF
:10469000F0EA9E42F0E99D42F0E89C45F022E86095
:1046A0000FECC313FCED13FDEE13FEEF13FFD8F177
:1046B00022E8600FEFC333FFEE33FEED33FDEC3342
:1046C000FCD8F122E493FC740193FD740293FE7410
:1046D0000393FF22E6FB08E6F908E6FA08E6CBF8C2
:1046E00022ECF608EDF608EEF608EFF622A4258295
:1046F000F582E5F03583F58322D083D082F8E49308
:104700007012740193700DA3A393F8740193F58252
:104710008883E4737402936860EFA3A3A380DF909F
:1047200038047852120BFD903800E0FEA3E0FDED56
:10473000FFC3120B9E903810120B929038067854DB
:10474000120BFD903802E0FEA3E0FDEDFFC3120B5B
:104750009E903812120B92A3E0B43107785279522E
:10476000120C13903814E0B471157852E6FE08E686
:104770007802CEC313CE13D8F97953F7EE19F79018
:104780003815E0B4310778547954120C1390381569
:10479000E0B471157854E6FE08E67802CEC313CE75
:1047A00013D8F97955F7EE19F77952120BD9091286
:1047B0000BD9AF47120BB2E544FB7A00FD7C001227
:1047C00004D3785AA60608A607AF45120BB2AD036C
:1047D0007C001204D37856A60608A607AF48785482
:1047E000120BB4E543FBFD7C001204D3785CA606F3
:1047F00008A607AF467E007854120BB6AD037C00C6
:104800001204D37858A60608A607C3785BE6940876
:1048100018E6940050057600087608C3785DE694A3
:104820000818E6940050057600087608785A120BAE
:10483000C6FFD37857E69F18E69E400E785AE613D7
:10484000FE08E67857120C0880047E007F00785E30
:10485000120BBEFFD37859E69F18E69E400E785C97
:10486000E613FE08E67859120C0880047E007F00EB
:10487000E4FCFD7862120699785A120BC678572626
:10488000FFEE1836FE7866120BBE785926FFEE183A
:1048900036FEE4FCFD786A120699120BCE78661299
:1048A000068CD31206454008120BCE786612069984
:1048B0007854120BD0786A12068CD3120645400A3F
:1048C0007854120BD0786A1206997861E6906001EC
:1048D000F07865E6A3F07869E6A3F07855E6A3F0F2
:1048E0007D017861120BE92401120BA67865120B89
:1048F000E92402120BA67869120BE92403120BA615
:10490000786D120BE92404120BA60DBD05D4C20E5E
:10491000C20622850841903024E0F53DA3E0F53E33
:10492000A3E0F53FA3E0F540A3E0F53CD234E54138
:104930001206B1093103093504093B05093E060990
:104940004107094A08095B12097318098919095EA8
:104950001A096A1B09AD8009B2810A1D8F0A0990E4
:104960000A1D910A1D920A1D930A1D940A1D980A98
:10497000179F0A1AEC00000A38120F7422120F74E3
:10498000D20322D20322C20322A237E433F53C022F
:104990000A1DC201C202C203120D0D751E70D2356E
:1049A000020A1D020A0485404A853C4B120AFF0296
:1049B0000A1D854A40854B3C020A1DE4F522F52379
:1049C000854031853F30853E2F853D2E120F468034
:1049D0001F75220075230174FFF52DF52CF52BF5BD
:1049E0002A120F46852D40852C3F852B3E852A3D7A
:1049F000E4F53C8070120F16806B853D45853E4680
:104A0000E547C313FFE545C39F50028F45E548C303
:104A100013FFE546C39F50028F46E547C313FFFDD2
:104A2000E5452DFDE433FCE544120F904005E544D7
:104A30009FF545E548C313FFFDE5462DFDE433FC36
:104A4000E543120F904005E5439FF5461206D780D7
:104A500014854048853F47853E46853D4580060292
:104A600006D7120D7E903024E53DF0A3E53EF0A37D
:104A7000E53FF0A3E540F0A3E53CF0903023E4F0FF
:104A800022C0E0C083C082C0D0903F0CE0F532E588
:104A90003230E374303666906019E0F50AA3E0F531
:104AA0000B90601DE0F514A3E0F515906021E0F592
:104AB0000CA3E0F50D906029E0F50EA3E0F50F9052
:104AC0006031E0F510A3E0F511906039E0F512A334
:104AD000E0F513300106303303D38001C39209306F
:104AE0000206303303D38001C3920A30330C300303
:104AF00009200206200103D38001C3920B903001EC
:104B0000E04440F0E054BFF0E53230E114303411BD
:104B1000903022E0F508E4F0300003D38001C39226
:104B200008E53230E5129056A1E0F5093031093040
:104B30000503D38001C3920D903F0CE532F0D0D035
:104B4000D082D083D0E032900E7EE493FE74019345
:104B5000FFC3900E7C7401939FFFE4939EFEE48F4D
:104B60003B8E3AF539F538AB3BAA3AA939A838AFAC
:104B70004BFCFDFE120528120DE1E47BFFFAF9F86B
:104B80001205B3120DE1900E69E4120DF6120DE15B
:104B9000E4854A37F536F535F534AF37AE36AD3501
:104BA000AC34A3120DF68F378E368D358C34E53B41
:104BB0004537F53BE53A4536F53AE5394535F539BA
:104BC000E5384534F538E4F522F523853B31853A5F
:104BD0003085392F85382E020F46E0A3E075F002AC
:104BE000A4FFAEF0C308E69FF618E69EF622FFE5A6
:104BF000F034608F82F583ECF02278527E00E6FC80
:104C000008E6FD0204C1E4FCFD120699785CE6C3E7
:104C100013FE08E613227852E6FE08E6FFE4FCFDE8
:104C200022E7C4F854F0C868F709E7C4540F48F7FE
:104C300022E6FCED75F004A42212067C8F488E4714
:104C40008D468C4522E0FEA3E0FDEEF6ED08F6224F
:104C500013FFC3E69FFF18E69EFE22E6C313F70884
:104C6000E61309F722AD39AC38FAF9F81205288FA6
:104C70003B8E3A8D398C38AB37AA36A935A8342209
:104C800093FFE4FCFDFE1205288F378E368D358CA0
:104C900034227884E6FE08E6FFE48F378E36F53559
:104CA000F53422900E8CE49325E0240AF8E6FE0801
:104CB000E6FF22E6FE08E6FFE48F3B8E3AF539F583
:104CC0003822784EE6FE08E6FF22EF25E0244EF873
:104CD000E6FC08E6FD227889EF26F618E436F6228F
:104CE00075890375A80175B8047534FF75350E759F
:104CF000361575370D120E9A120009120F16120092
:104D000006D200D234D2AF7534FF75350E753649F0
:104D1000753703120E9A300809C2341208CBC20844
:104D2000D234300B09C23612026CC20BD2363009B3
:104D300009C23612000EC209D236300E031206D74F
:104D40003035D3903029E51EF0B41005903023E4BF
:104D5000F0C23580C1E4F54B900E7A93FFE48F37B3
:104D6000F536F535F534AF37AE36AD35AC34900E9B
:104D70006A120DF68F378E368D358C34900E721286
:104D8000067CEF4537F537EE4536F536ED4535F51A
:104D900035EC4534F534E4F522F523853731853695
:104DA0003085352F85342E120F46E4F522F52390F9
:104DB0000E72120DEA120F46E4F522F523900E6EE4
:104DC000120DEA020F46E54024F2F537E53F344381
:104DD000F536E53E34A2F535E53D3428F534E537C2
:104DE000FFE4FEFDFC78181206698F408E3F8D3E71
:104DF0008C3DE53754A0FFE536FEE4FDFC78071254
:104E000006567810120F9AE4FFFEE535FDE4FC78B3
:104E10000E120656120F9DE4FFFEFDE534FC7818D5
:104E20001206567808120F9A228F3B8E3A8D398CD3
:104E3000382212067C8F318E308D2F8C2E2293F9E2
:104E4000F8020669000000001201170831155354DA
:104E50004420202020201301100156401A30297EC2
:104E600000300420DF300540BF500300FD50270113
:104E7000FE600011003F0530003F0622003F012A7E
:104E8000003F020000360607003F0B0FF000000055
:104E900000300140BF300100BF302970003A0000EF
:104EA000FF3A0000FF360336024144582018100A2A
:104EB00004040003FF640000800000000000000202
:104EC000040606000351007A503C281E1010502D95
:104ED000281610100200100C10040C6E060500A518
:104EE0005A00AE35AF36E4FDEDC395375033120F9F
:104EF000E2E493F538740193F53945386023853938
:104F000082853883E0FC120FE27403935204120F7F
:104F1000E27402934204853982853883ECF00D8077
:104F2000C72278BEE6D308FFE66480F8EF64809875
:104F30002293FF7E00E6FC08E6FD1204C178C1E67C
:104F4000FC08E6FDD3EF9DEE9C2278BDD3E664809D
:104F500094802225E0240AF8E6FE08E6FF22E53CDC
:104F6000D39400400B900E88120BF1900E868009AE
:104F7000900E82120BF1900E80E493F544A3E4931B
:104F8000F543D206300603D38001C3920E22A2AFAE
:104F90009232C2AFE5234522900E5D600E120FCB18
:104FA000E0F52C120FC8E0F52D800C120FCBE53088
:104FB000F0120FC8E531F0A23292AF22D201C20244
:104FC000E4F51FF51ED235D233D236D201C202F536
:104FD0001FF51ED235D23322FBD3ED9B7480F86CC3
:104FE0009822120669E5402FF540E53F3EF53FE582
:104FF0003E3DF53EE53D3CF53D22C0E0C083C0822C
:10500000903F0DE0F533E533F0D082D083D0E0322D
:10501000900E5FE493FE740193F5828E8322787F75
:10502000E4F6D8FD7581CD020C988F828E8375F0E1
:1050300004ED0206A51008100820102018412018C1
:105040001030286130281038306138301040387105
:105050004038105048905048206058A060582004B4
:10506000000400040000061C040004F301054804C9
:105070000007CF010648040004D30104100400080F
:1050800040010C303D3E3D01103D4D4E4D0115524D
:10509000666866021A66808280021F7A9A9C9A026B
:1050A000248FB3B6B3032BABD6DAD6040640101E5A
:1050B000A0401E80C01E80801E40A04040101E6088
:1050C00060000000E450000800000020B40100006F
:1050D000AC070008B4510008B40100203C380000BF
:1050E000341E0008A12D010203040405240607084C
:1050F000091B7F4001513AE03F1C01010F04894F19
:105100003901212770880808083817382021212202
:105110001C140838C834C8380834203F201D08F84B
:1051200030C0052A080E1407183F1B18080D9B08ED
:105130001820192C39204809210101213F20C030B5
:105140004F180807182020221E021B2E8888E80806
:10515000102EFD2023201850E92011548098982A01
:105160002012190F1A80032A806E3A2173290D39F3
:105170001146030C300C03390E212D1924241292F0
:10518000AC1010F840E95039302390F02E1F202049
:10519000201031191029411B1F24013A174E2904F0
:1051A000192F132120FA0110893019400B11201FEB
:0451B00020210000BA
:040000050800018965
:00000001FF
